{
  "contractName": "HouseBid",
  "abi": [
    {
      "constant": true,
      "inputs": [],
      "name": "beneficiary",
      "outputs": [
        {
          "name": "",
          "type": "address"
        }
      ],
      "payable": false,
      "stateMutability": "view",
      "type": "function"
    },
    {
      "constant": true,
      "inputs": [],
      "name": "auctionStart",
      "outputs": [
        {
          "name": "",
          "type": "uint256"
        }
      ],
      "payable": false,
      "stateMutability": "view",
      "type": "function"
    },
    {
      "constant": true,
      "inputs": [],
      "name": "highestBidder",
      "outputs": [
        {
          "name": "",
          "type": "address"
        }
      ],
      "payable": false,
      "stateMutability": "view",
      "type": "function"
    },
    {
      "constant": true,
      "inputs": [],
      "name": "biddingTime",
      "outputs": [
        {
          "name": "",
          "type": "uint256"
        }
      ],
      "payable": false,
      "stateMutability": "view",
      "type": "function"
    },
    {
      "constant": true,
      "inputs": [],
      "name": "highestBid",
      "outputs": [
        {
          "name": "",
          "type": "uint256"
        }
      ],
      "payable": false,
      "stateMutability": "view",
      "type": "function"
    },
    {
      "anonymous": false,
      "inputs": [
        {
          "indexed": false,
          "name": "bidder",
          "type": "address"
        },
        {
          "indexed": false,
          "name": "amount",
          "type": "uint256"
        }
      ],
      "name": "HighestBidIncreased",
      "type": "event"
    },
    {
      "anonymous": false,
      "inputs": [
        {
          "indexed": false,
          "name": "winner",
          "type": "address"
        },
        {
          "indexed": false,
          "name": "amount",
          "type": "uint256"
        }
      ],
      "name": "AuctionEnded",
      "type": "event"
    },
    {
      "constant": false,
      "inputs": [
        {
          "name": "_biddingTime",
          "type": "uint256"
        },
        {
          "name": "_beneficiary",
          "type": "address"
        }
      ],
      "name": "SimpleAuction",
      "outputs": [],
      "payable": false,
      "stateMutability": "nonpayable",
      "type": "function"
    },
    {
      "constant": false,
      "inputs": [],
      "name": "bid",
      "outputs": [],
      "payable": true,
      "stateMutability": "payable",
      "type": "function"
    },
    {
      "constant": false,
      "inputs": [],
      "name": "withdraw",
      "outputs": [
        {
          "name": "",
          "type": "bool"
        }
      ],
      "payable": false,
      "stateMutability": "nonpayable",
      "type": "function"
    },
    {
      "constant": false,
      "inputs": [],
      "name": "auctionEnd",
      "outputs": [],
      "payable": false,
      "stateMutability": "nonpayable",
      "type": "function"
    }
  ],
  "bytecode": "0x608060405234801561001057600080fd5b50610733806100206000396000f300608060405260043610610099576000357c0100000000000000000000000000000000000000000000000000000000900463ffffffff1680631998aeef1461009e5780632a24f46c146100a857806338af3eed146100bf5780633ccfd60b146101165780634f245ef71461014557806391f9015714610170578063d074a38d146101c7578063d57bde79146101f2578063ffb3401d1461021d575b600080fd5b6100a661026a565b005b3480156100b457600080fd5b506100bd6103f6565b005b3480156100cb57600080fd5b506100d4610533565b604051808273ffffffffffffffffffffffffffffffffffffffff1673ffffffffffffffffffffffffffffffffffffffff16815260200191505060405180910390f35b34801561012257600080fd5b5061012b610558565b604051808215151515815260200191505060405180910390f35b34801561015157600080fd5b5061015a61067d565b6040518082815260200191505060405180910390f35b34801561017c57600080fd5b50610185610683565b604051808273ffffffffffffffffffffffffffffffffffffffff1673ffffffffffffffffffffffffffffffffffffffff16815260200191505060405180910390f35b3480156101d357600080fd5b506101dc6106a9565b6040518082815260200191505060405180910390f35b3480156101fe57600080fd5b506102076106af565b6040518082815260200191505060405180910390f35b34801561022957600080fd5b5061026860048036038101908080359060200190929190803573ffffffffffffffffffffffffffffffffffffffff1690602001909291905050506106b5565b005b6002546001540142111561027d57600080fd5b6004543411151561028d57600080fd5b6000600360009054906101000a900473ffffffffffffffffffffffffffffffffffffffff1673ffffffffffffffffffffffffffffffffffffffff161415156103415760045460056000600360009054906101000a900473ffffffffffffffffffffffffffffffffffffffff1673ffffffffffffffffffffffffffffffffffffffff1673ffffffffffffffffffffffffffffffffffffffff168152602001908152602001600020600082825401925050819055505b33600360006101000a81548173ffffffffffffffffffffffffffffffffffffffff021916908373ffffffffffffffffffffffffffffffffffffffff160217905550346004819055507ff4757a49b326036464bec6fe419a4ae38c8a02ce3e68bf0809674f6aab8ad3003334604051808373ffffffffffffffffffffffffffffffffffffffff1673ffffffffffffffffffffffffffffffffffffffff1681526020018281526020019250505060405180910390a1565b600254600154014211151561040a57600080fd5b600660009054906101000a900460ff161561042457600080fd5b6001600660006101000a81548160ff0219169083151502179055507fdaec4582d5d9595688c8c98545fdd1c696d41c6aeaeb636737e84ed2f5c00eda600360009054906101000a900473ffffffffffffffffffffffffffffffffffffffff16600454604051808373ffffffffffffffffffffffffffffffffffffffff1673ffffffffffffffffffffffffffffffffffffffff1681526020018281526020019250505060405180910390a16000809054906101000a900473ffffffffffffffffffffffffffffffffffffffff1673ffffffffffffffffffffffffffffffffffffffff166108fc6004549081150290604051600060405180830381858888f19350505050151561053157600080fd5b565b6000809054906101000a900473ffffffffffffffffffffffffffffffffffffffff1681565b600080600560003373ffffffffffffffffffffffffffffffffffffffff1673ffffffffffffffffffffffffffffffffffffffff1681526020019081526020016000205490506000811115610674576000600560003373ffffffffffffffffffffffffffffffffffffffff1673ffffffffffffffffffffffffffffffffffffffff168152602001908152602001600020819055503373ffffffffffffffffffffffffffffffffffffffff166108fc829081150290604051600060405180830381858888f1935050505015156106735780600560003373ffffffffffffffffffffffffffffffffffffffff1673ffffffffffffffffffffffffffffffffffffffff1681526020019081526020016000208190555060009150610679565b5b600191505b5090565b60015481565b600360009054906101000a900473ffffffffffffffffffffffffffffffffffffffff1681565b60025481565b60045481565b806000806101000a81548173ffffffffffffffffffffffffffffffffffffffff021916908373ffffffffffffffffffffffffffffffffffffffff160217905550426001819055508160028190555050505600a165627a7a72305820fe7ba92608c79f91ae45db639751317ecf3eb67927b1cd42aacf7b9231ea21b80029",
  "source": "pragma solidity ^0.4.0;\n\ncontract HouseBid {\n  // Parameters of the auction. Times are either\n  // absolute unix timestamps (seconds since 1970-01-01)\n  // or time periods in seconds.\n  address public beneficiary;\n  uint public auctionStart;\n  uint public biddingTime;\n\n  // Current state of the auction.\n  address public highestBidder;\n  uint public highestBid;\n\n  // Allowed withdrawals of previous bids\n  mapping(address => uint) pendingReturns;\n\n  // Set to true at the end, disallows any change\n  bool ended;\n\n  // Events that will be fired on changes.\n  event HighestBidIncreased(address bidder, uint amount);\n  event AuctionEnded(address winner, uint amount);\n\n  // The following is a so-called natspec comment,\n  // recognizable by the three slashes.\n  // It will be shown when the user is asked to\n  // confirm a transaction.\n\n  /// Create a simple auction with `_biddingTime`\n  /// seconds bidding time on behalf of the\n  /// beneficiary address `_beneficiary`.\n  function SimpleAuction(\n      uint _biddingTime,\n      address _beneficiary\n  ) {\n    beneficiary = _beneficiary;\n    auctionStart = now;\n    biddingTime = _biddingTime;\n  }\n\n  /// Bid on the auction with the value sent\n  /// together with this transaction.\n  /// The value will only be refunded if the\n  /// auction is not won.\n  function bid() payable {\n    // No arguments are necessary, all\n    // information is already part of\n    // the transaction. The keyword payable\n    // is required for the function to\n    // be able to receive Ether.\n    if (now > auctionStart + biddingTime) {\n      // Revert the call if the bidding\n      // period is over.\n      throw;\n    }\n    if (msg.value <= highestBid) {\n      // If the bid is not higher, send the\n      // money back.\n      throw;\n    }\n    if (highestBidder != 0) {\n      // Sending back the money by simply using\n      // highestBidder.send(highestBid) is a security risk\n      // because it can be prevented by the caller by e.g.\n      // raising the call stack to 1023. It is always safer\n      // to let the recipient withdraw their money themselves.\n      pendingReturns[highestBidder] += highestBid;\n    }\n    highestBidder = msg.sender;\n    highestBid = msg.value;\n    HighestBidIncreased(msg.sender, msg.value);\n  }\n\n  /// Withdraw a bid that was overbid.\n  function withdraw() returns (bool) {\n    var amount = pendingReturns[msg.sender];\n    if (amount > 0) {\n      // It is important to set this to zero because the recipient\n      // can call this function again as part of the receiving call\n      // before `send` returns.\n      pendingReturns[msg.sender] = 0;\n\n      if (!msg.sender.send(amount)) {\n        // No need to call throw here, just reset the amount owing\n        pendingReturns[msg.sender] = amount;\n        return false;\n      }\n    }\n    return true;\n  }\n\n  /// End the auction and send the highest bid\n  /// to the beneficiary.\n  function auctionEnd() {\n    // It is a good guideline to structure functions that interact\n    // with other contracts (i.e. they call functions or send Ether)\n    // into three phases:\n    // 1. checking conditions\n    // 2. performing actions (potentially changing conditions)\n    // 3. interacting with other contracts\n    // If these phases are mixed up, the other contract could call\n    // back into the current contract and modify the state or cause\n    // effects (ether payout) to be perfromed multiple times.\n    // If functions called internally include interaction with external\n    // contracts, they also have to be considered interaction with\n    // external contracts.\n\n    // 1. Conditions\n    if (now <= auctionStart + biddingTime)\n      throw; // auction did not yet end\n    if (ended)\n      throw; // this function has already been called\n\n    // 2. Effects\n    ended = true;\n    AuctionEnded(highestBidder, highestBid);\n\n    // 3. Interaction\n    if (!beneficiary.send(highestBid))\n      throw;\n  }\n}",
  "sourcePath": "/Users/nev/HouseBid/contracts/HouseBid.sol",
  "compiler": {
    "name": "solc",
    "version": "0.4.24+commit.e67f0147.Emscripten.clang"
  },
  "schemaVersion": "2.0.1",
  "updatedAt": "2018-08-27T20:44:59.193Z"
}